:100000000C9462000C948A000C948A000C948A0070
:100010000C948A000C948A000C948A000C948A0038
:100020000C948A000C948A000C948A000C948A0028
:100030000C948A000C948A000C948A000C948A0018
:100040000C940B030C948A000C947B030C945503C2
:100050000C948A000C948A000C948A000C948A00F8
:100060000C948A000C948A000000000023002600F3
:10007000290000000000240027002A0000000000E2
:10008000250028002B0004040404040404040202D4
:100090000202020203030303030301020408102007
:1000A0004080010204081020010204081020000012
:1000B0000008000201000003040700000000000027
:1000C00000003F0511241FBECFEFD8E0DEBFCDBF3B
:1000D00011E0A0E0B1E0E4E1FEE002C005900D9285
:1000E000AC32B107D9F721E0ACE2B1E001C01D921A
:1000F000AA3DB207E1F710E0C2E6D0E004C02197C4
:10010000FE010E94EE06C136D107C9F70E94F20334
:100110000C9408070C94000090E0FC01E255FF4F9E
:100120002491FC01E656FF4F3491FC01EA57FF4F42
:10013000E491EE2309F43CC0222339F1233091F0FD
:1001400038F42130A9F0223001F584B58F7D12C03A
:10015000273091F02830A1F02430B9F4809180004C
:100160008F7D03C0809180008F77809380000DC0C9
:1001700084B58F7784BD09C08091B0008F7703C0AC
:100180008091B0008F7D8093B000F0E0EE0FFF1FF4
:10019000E458FF4FA591B4919FB7F894611104C042
:1001A0008C913095382302C0EC913E2B3C939FBF3D
:1001B0000895CF93DF9390E0FC01E656FF4F249122
:1001C000FC01EA57FF4F8491882361F190E0880F8A
:1001D000991FFC01EE58FF4FC591D491FC01E458E2
:1001E000FF4FA591B491611109C09FB7F894888120
:1001F000209582238883EC912E230BC0623061F41A
:100200009FB7F8948881322F309583238883EC91AF
:100210002E2B2C939FBF06C08FB7F894E8812E2B0E
:1002200028838FBFDF91CF9108953FB7F8948091D5
:10023000390190913A01A0913B01B0913C0126B562
:10024000A89B05C02F3F19F00196A11DB11D3FBF0E
:10025000BA2FA92F982F8827820F911DA11DB11D9C
:10026000BC01CD0142E0660F771F881F991F4A9598
:10027000D1F708958F929F92AF92BF92CF92DF9263
:10028000EF92FF926B017C010E9415014B015C0112
:10029000C114D104E104F104F1F00E941501DC0164
:1002A000CB0188199909AA09BB09883E9340A10589
:1002B000B10570F321E0C21AD108E108F10888EE17
:1002C000880E83E0981EA11CB11CC114D104E10466
:1002D000F10419F7DDCFFF90EF90DF90CF90BF9042
:1002E000AF909F908F900895CF92DF92EF92FF9200
:1002F0000F931F93CF93DF936C017A018B01C0E0C2
:10030000D0E0CE15DF0581F0D8016D918D01D601C9
:10031000ED91FC910190F081E02DC6010995892BAA
:1003200011F02196EECF7E01C701DF91CF911F9191
:100330000F91FF90EF90DF90CF900895089580E0A7
:1003400090E00895FC01538D448D252F30E0842FDB
:1003500090E0821B930B541710F0CF9608950197ED
:100360000895FC01918D828D981761F0828DDF01D7
:10037000A80FB11D5D968C91928D9F5F9F73928F98
:1003800090E008958FEF9FEF0895FC01918D828D8D
:10039000981731F0828DE80FF11D858D90E008955A
:1003A0008FEF9FEF0895FC01918D228D892F90E0B2
:1003B000805C9F4F821B91098F73992708958DE36D
:1003C00091E00E94D30121E0892B09F420E0822FE3
:1003D0000895FC01848DDF01A80FB11DA35ABF4F02
:1003E0002C91848D90E001968F739927848FA68934
:1003F000B7892C93A089B1898C91837080648C9388
:10040000938D848D981306C00288F389E02D808136
:100410008F7D80830895EF92FF920F931F93CF9368
:10042000DF93EC0181E0888F9B8D8C8D981305C044
:10043000E889F989808185FD26C0F62E0B8D10E0B4
:100440000F5F1F4F0F731127E02E8C8DE8120CC029
:100450000FB607FCFACFE889F989808185FFF5CFCF
:10046000CE010E94E901F1CF8B8DFE01E80FF11D55
:10047000E35AFF4FF0829FB7F8940B8FEA89FB890C
:10048000808180620AC09FB7F894EE89FF896083FB
:10049000E889F98980818370806480839FBF81E0CF
:1004A00090E0DF91CF911F910F91FF90EF90089511
:1004B000CF93DF93EC01888D8823C9F0EA89FB890B
:1004C000808185FD05C0A889B9898C9186FD0FC002
:1004D0000FB607FCF5CF808185FFF2CFA889B989D7
:1004E0008C9185FFEDCFCE010E94E901E7CFDF912E
:1004F000CF91089580E090E0892B29F00E94DF01E0
:1005000081110C9400000895009769F0FC0101909E
:100510000020E9F73197AF01481B590BBC018DE36F
:1005200091E00C94740180E090E008958F929F9286
:10053000AF92BF92CF92DF92EF92FF920F931F93F1
:10054000CF93DF93CDB7DEB7A1970FB6F894DEBF98
:100550000FBECDBF6B017C0197FF2BC06DE28DE319
:1005600091E00E940B028C0122273327A9012C194C
:100570003D094E095F0919A2CE0181967C019AE0DE
:10058000892E912CA12CB12CCA01B901A50194018D
:100590000E94A206605DF70162937F01211531057B
:1005A0004105510589F7CF010E948402800F911FF8
:1005B0001DC09B01AC0119A28E010F5D1F4F8AE087
:1005C000C82ED12CE12CF12CCA01B901A70196014A
:1005D0000E94A206605DF80162938F01211531052A
:1005E0004105510589F7CF010E948402A1960FB6FB
:1005F000F894DEBF0FBECDBFDF91CF911F910F9159
:10060000FF90EF90DF90CF90BF90AF909F908F9032
:1006100008950E9403071F920F920FB60F921124A4
:100620002F933F938F939F93AF93BF938091350107
:1006300090913601A0913701B09138013091340189
:1006400023E0230F2D3720F40196A11DB11D05C015
:1006500026E8230F0296A11DB11D2093340180933B
:10066000350190933601A0933701B0933801809102
:10067000390190913A01A0913B01B0913C01019662
:10068000A11DB11D8093390190933A01A0933B01C4
:10069000B0933C01BF91AF919F918F913F912F916A
:1006A0000F900FBE0F901F9018951F920F920FB6CC
:1006B0000F9211242F933F934F935F936F937F93E8
:1006C0008F939F93AF93BF93EF93FF938DE391E04D
:1006D0000E94E901FF91EF91BF91AF919F918F919E
:1006E0007F916F915F914F913F912F910F900FBE2E
:1006F0000F901F9018951F920F920FB60F92112412
:100700002F938F939F93EF93FF93E0914D01F0917F
:100710004E018081E0915301F091540182FD12C09D
:100720009081809156018F5F8F73209157018217BE
:1007300051F0E0915601F0E0E35CFE4F958F80931D
:10074000560101C08081FF91EF919F918F912F9170
:100750000F900FBE0F901F901895CF92DF92EF92DF
:10076000FF920F931F93E82FF92F05C00150110935
:100770002109310961F1908196239417B9F305C0DD
:10078000015011092109310911F190819623941327
:10079000F7CFC12CD12CE12CF12C0AC08FEFC81A55
:1007A000D80AE80AF80A0C151D052E053F0579F050
:1007B00080818623841791F36C2D7D2D8E2D9F2DA6
:1007C0001F910F91FF90EF90DF90CF90089560E020
:1007D00070E080E090E01F910F91FF90EF90DF902C
:1007E000CF900895789484B5826084BD84B581608B
:1007F00084BD85B5826085BD85B5816085BD8091EC
:100800006E00816080936E00109281008091810063
:10081000826080938100809181008160809381005B
:10082000809180008160809380008091B10084601D
:100830008093B1008091B00081608093B00080917E
:100840007A00846080937A0080917A00826080933D
:100850007A0080917A00816080937A0080917A009A
:10086000806880937A001092C100E0914D01F09170
:100870004E0182E08083E0914901F0914A011082AB
:10088000E0914B01F0914C018FEC80831092550167
:10089000E0915101F091520186E08083E0914F0197
:1008A000F0915001808180618083E0914F01F0914F
:1008B0005001808188608083E0914F01F091500168
:1008C000808180688083E0914F01F09150018081A8
:1008D0008F7D808361E08BE00E94D90060E08CE036
:1008E0000E94D90061E08DE00E94D9004FE0242EE3
:1008F000312CC3E2D0E054E9852E912CA12CB12CEF
:100900006AEF462E512C612C712C60E08BE00E9426
:100910008C00C1010197F1F761E08BE00E948C002F
:10092000CE010197F1F760E08BE00E948C0060E05F
:100930008CE00E94D900E6EAF0E06491E2E9F0E0A0
:100940008491E82FF0E0EE0FFF1FE859FF4F8591EB
:10095000949100E412E42FE030E0462F0E94AD03B2
:10096000611571058105910551F0DC01CB010196FE
:10097000A11DB11D6C017D01FFE0FF2203C0C12C50
:10098000D12C7601C701B601959587957795679526
:100990000E9416062DEC3CEC48EE51E40E946C05DA
:1009A0000E94DE0560933001709331018093320123
:1009B00090933301C701B601A50194010E94C406BA
:1009C00069017A01AAE0B0E00E94E3066B3F71057D
:1009D000810591054CF460932C0170932D01809357
:1009E0002E0190932F0108C040922C0150922D01AE
:1009F00060922E0170922F01C701B6010E949602EB
:100A000082E191E00E948402609130017091310195
:100A100080913201909133010E94960287E191E02A
:100A20000E9484028CE191E00E94840260912C017A
:100A300070912D0180912E0190912F010E949602BC
:100A400089E291E00E94840261E08DE00E948C00C6
:100A5000C0902C01D0902D01E0902E01F0902F013C
:100A6000C701B6010E943A0160E08DE00E948C004F
:100A7000C701B6010E943A010E947A0246CFEDE317
:100A8000F1E01382128288EE93E0A0E0B0E084836C
:100A90009583A683B78384E091E09183808385EC7E
:100AA00090E09587848784EC90E09787868780EC38
:100AB00090E0918B808B81EC90E0938B828B82EC29
:100AC00090E0958B848B86EC90E0978B868B118ED3
:100AD000128E138E148E08950E9480050C94680661
:100AE0000E94610658F00E945A0640F029F45F3FC8
:100AF00029F00C94510651110C949C060C94570645
:100B00000E94790668F39923B1F3552391F3951B5D
:100B1000550BBB27AA2762177307840738F09F5F1E
:100B20005F4F220F331F441FAA1FA9F335D00E2E8B
:100B30003AF0E0E832D091505040E695001CCAF7F8
:100B40002BD0FE2F29D0660F771F881FBB1F2617BB
:100B500037074807AB07B0E809F0BB0B802DBF0192
:100B6000FF2793585F4F3AF09E3F510578F00C9461
:100B700051060C949C065F3FE4F3983ED4F38695AF
:100B800077956795B795F7959F5FC9F7880F911D82
:100B90009695879597F90895E1E0660F771F881F6E
:100BA000BB1F621773078407BA0720F0621B730B21
:100BB000840BBA0BEE1F88F7E09508950E94E505B7
:100BC0006894B1110C949C0608950E94810688F0E7
:100BD0009F5798F0B92F9927B751B0F0E1F0660F01
:100BE000771F881F991F1AF0BA95C9F714C0B13042
:100BF00091F00E949B06B1E008950C949B06672F2C
:100C0000782F8827B85F39F0B93FCCF38695779570
:100C10006795B395D9F73EF4909580957095619559
:100C20007F4F8F4F9F4F0895E89409C097FB3EF484
:100C300090958095709561957F4F8F4F9F4F992329
:100C4000A9F0F92F96E9BB279395F69587957795A7
:100C50006795B795F111F8CFFAF4BB0F11F460FF67
:100C60001BC06F5F7F4F8F4F9F4F16C0882311F0BF
:100C700096E911C0772321F09EE8872F762F05C0D3
:100C8000662371F096E8862F70E060E02AF09A956E
:100C9000660F771F881FDAF7880F9695879597F963
:100CA000089597F99F6780E870E060E008959FEFEE
:100CB00080EC089500240A941616170618060906F3
:100CC000089500240A9412161306140605060895C2
:100CD000092E0394000C11F4882352F0BB0F40F44A
:100CE000BF2B11F460FF04C06F5F7F4F8F4F9F4F8A
:100CF000089557FD9058440F551F59F05F3F71F00C
:100D00004795880F97FB991F61F09F3F79F0879572
:100D10000895121613061406551FF2CF4695F1DFFB
:100D200008C0161617061806991FF1CF869571058B
:100D3000610508940895E894BB2766277727CB01BF
:100D400097F90895A1E21A2EAA1BBB1BFD010DC045
:100D5000AA1FBB1FEE1FFF1FA217B307E407F5076B
:100D600020F0A21BB30BE40BF50B661F771F881F47
:100D7000991F1A9469F760957095809590959B01DD
:100D8000AC01BD01CF010895052E97FB1EF4009420
:100D90000E94DB0657FD07D00E94A20607FC03D085
:100DA0004EF40C94DB0650954095309521953F4FBD
:100DB0004F4F5F4F089590958095709561957F4F47
:100DC0008F4F9F4F08950E94F406A59F900DB49FEA
:100DD000900DA49F800D911D11240895EE0FFF1F0B
:100DE0000590F491E02D0994A29FB001B39FC0013A
:100DF000A39F700D811D1124911DB29F700D811D47
:100E00001124911D089581E090E0F8940C94080756
:040E1000F894FFCF84
:100E1400000000000B027401A2015802D301B101C9
:100E2400C501696E2C2000636D2C20006C69676815
:0C0E34007420737065656420000D0A00D6
:00000001FF
